:1000000058C0E7C171C070C06FC06EC06DC06CC019
:100010006BC03FC469C068C067C066C065C064C0CB
:1000200063C062C061C01201100102000008C01666
:10003000E1050001010200011003550053004200D8
:100040002D00320033003200220377007700770062
:100050002E00720065006300750072007300690075
:100060006F006E002E006A0070000403090409028C
:100070004300020100803209040000010202010075
:1000800005240010010424020205240600010524B1
:10009000010301070583030800FF09040100020AA8
:1000A00000000007050102080000070581020800A2
:1000B000000011241FBECFE5D4E0DEBFCDBF10E0AD
:1000C000A0E6B0E0E4E1F0E102C005900D92AC37AB
:1000D000B107D9F722E0ACE7B0E001C01D92AC3126
:1000E000B207E1F76BD494C78BCF1F93CF93DF9305
:1000F000162FEA01288124FF05C0298138E823272B
:10010000298302C02AE528839E012E5F3F4FD90133
:10011000FC01810F91919D93982F9E1B1916D4F38A
:10012000612FC90152D11C5F1883DF91CF911F91BC
:10013000089547E950E0D9CF43EC50E0D6CFCF93B4
:10014000DF936091A900635067FDB2C08091A60063
:10015000CCE0D0E0C81BD109C355DF4F8091A5008A
:10016000803118F4CE0168D39DC08D3209F08BC068
:10017000683009F097C083EC80938C008AE5809307
:1001800061001092A4008881807619F0CE01FDD222
:1001900067C09A81109295008981811106C01092E2
:1001A000960025E930E082E057C0853019F490933D
:1001B000AA004FC08630A9F58B81813041F486E2D8
:1001C00090E09093A8008093A70082E126C082303F
:1001D00019F4CE01C5D221C08330F1F4911108C0C9
:1001E0008AE690E09093A8008093A70084E015C071
:1001F000913041F488E490E09093A8008093A700A8
:1002000082E20BC0923041F488E390E09093A80022
:100210008093A70080E101C080E090E49093A40067
:100220001FC0883079F0893019F49093AC0011C068
:100230008A3059F08B3069F48BE480939800809376
:10024000C40007C02CEA30E002C025E930E081E0BC
:1002500003C025E930E080E03093A8002093A70098
:100260008F3F39F4988197FD8E8190E89093A40098
:1002700007C09F81911104C09E81981708F4892FAF
:10028000809360000FC08091A40087FF0BC0CE0157
:10029000B2D28F3F21F48EE18093610003C08111BF
:1002A000109260008091A900181614F41092A90011
:1002B0008091610084FF56C0809160008F3F09F4F7
:1002C00051C0C82F893008F0C8E08C1B80936000B3
:1002D00080918C0098E8892780938C00CC2389F149
:1002E0008091A40087FF08C06C2F8DE890E06BD24E
:1002F000C82F893088F525C04091A7005091A800EB
:1003000086FF0BC0ADE8B0E0FA018C2F8A0F949104
:100310009D9331968A13FBCF09C0DA01EDE8F0E036
:100320008C2F8E0F9D9191938E13FCCF2FEF2C0F5E
:1003300030E02F5F3F4F240F351F3093A8002093EC
:10034000A7006C2F8DE890E040D0CC5FCC3041F01E
:100350008FEF8093600004C08FEF80936000CEE148
:10036000C093610084E196B3937031F48150D9F762
:100370001092AA001092A300DF91CF91089585B743
:10038000826085BF8BB780648BBF8BE480939800BD
:100390008093C4008AE5809397008093C3000895FA
:1003A000A82FB92F80E090E041E050EA609530E05E
:1003B00009C02D9182279795879510F0842795275E
:1003C000305EC8F36F5FA8F30895EADF8D939D93C5
:1003D0000895CF93CFB7CF93C395B09BE9F7B09B68
:1003E00009C0B09B07C0B09B05C0B09B03C0B09BC9
:1003F00001C0A6C0DF93C091A600DD27C355DF4F23
:10040000B09B02C0DF91EBCF2F930F931F9306B3E6
:100410002FEF00FB20F94F933F9316B34FEF0127C7
:1004200000FB21F93BE031C04E7F012F16B3216064
:1004300028C0102F4D7F2260000006B329C04B7FDB
:100440002460012F000016B32BC016B3477F28602D
:100450002AC04F7E06B320612CC04F7D16B32062A8
:100460002FC04F7B06B3206432C0422706B34993A6
:100470004FEF0000102710FB20F916B31370C9F1DD
:10048000297F91F2012700FB21F906B3237F89F22E
:10049000315058F1102710FB22F916B3277E79F25C
:1004A000012700FB23F92F7C81F206B3102710FBF4
:1004B00024F92F7971F200C016B3012700FB25F94A
:1004C0002F7359F200C006B3102710FB26F9223013
:1004D00040F200C016B3012700FB27F9243028F6AC
:1004E0004F77206816B30000F9CF10E41ABF002739
:1004F0001CC03B503195C31BD04010E41ABF08818B
:10050000033C11F10B3401F12091A3001981110F6B
:100510001213EDCF4A81441F093659F10D3211F003
:10052000013E29F74F7009F0042F0093AB003F9173
:100530004F911F910F912F91DF91CAB7C6FD4CCFFC
:10054000CF91CFBFCF9118952091AB00222379F3A3
:100550001091A9001123C1F53430C2F13093A900E4
:100560002093A5001091A6003BE0311B3093A6001C
:100570002DC00091A90001303CF50AE54F7049F407
:100580003091610034FD24C000936100CCE8D0E0DC
:1005900023C0433049F03091970034FD19C00093D7
:1005A0009700C8E9D0E018C03091C30034FD10C0F6
:1005B0000093C300C4ECD0E00FC02795A8F45150BD
:1005C000A9F4220F0000F9CF4AE503C042ED01C0B3
:1005D000432FC4E1D0E032E017B31360C09A17BBD9
:1005E00008B320E413E05F93012756E008BB27958A
:1005F00020F4515021F4220FF9CF012756E00000DA
:100600003B5A08BBD0F2279528F4515029F4220F09
:100610000000F9CF012756E0279508BB20F4515080
:1006200021F4220FF9CF012756E02991332308BB8B
:1006300021F60C7F1091AA00110FC651D04008BBC3
:1006400011F01093A30010E41ABF016017B31C7FD0
:10065000402F4C7F5F9100C000C008BB17BB48BB58
:1006600066CF30C190919A0180919901891759F014
:10067000E92FF0E0E85AFE4F80819F5F9F739093CF
:100680009A0190E008958FEF9FEF0895E091570150
:1006900091E09E0F9F7720919801921749F0F0E02A
:1006A000E153FF4F80839093570180E090E00895DD
:1006B0008FEF9FEF0895CF93DF938091970084FF92
:1006C00030C0C091570180919801C81304C0909127
:1006D0009B01992331F1C81BCF77C93008F0C8E0DE
:1006E000DC2FD80FD7FF0DC0DF772FEC30E0AFE461
:1006F000B1E0F9019E2F921B9D1718F491919D93E3
:10070000F9CF90E06C2F81539F4F13DDD093980168
:10071000C83021F481E0909157019D1380E08093CF
:100720009B01DF91CF910895D9D0C5CF0F936091F0
:100730007C0070917D0080917E0090917F000091FF
:10074000800020918200409181008BDF10929A01FD
:100750001092570110929801109299010F910895EB
:10076000FC018381813049F486E290E09093A800F7
:100770008093A7008091260008958EE690E09093E4
:10078000A8008093A70083E40895FC012081322F04
:1007900030763032A1F4FC01818190EE980F9230D6
:1007A00080F0823239F480918300811103C082E0AD
:1007B0008093830027FD03C081E080939B0180E04C
:1007C00008958FEF0895FC0180917C0080838091D3
:1007D0007D00818380917E00828380917F0083836E
:1007E0008091820084838091810085838091800044
:1007F000868387E00895FC01808180937C0081815D
:1008000080937D00828180937E00838180937F002E
:10081000848180938200958190938100268120932A
:100820008000933010F010928100813011F410920A
:1008300082007CDF81E0089530919A01E091990176
:10084000662381F021E02E0F2F73231749F0DC017E
:100850004C91F0E0E85AFE4F4083209399010196B5
:100860006150ECCF8FEF830F8E1B8F73893018F49C
:100870008FEF8093A9000895CF93DF93EC018991C6
:10088000882311F003DFFBCF80E090E0DF91CF9170
:1008900008951F920F920FB60F9211248F939F937A
:1008A00080918A0090918B00019690938B008093A9
:1008B0008A0089E682BF9F918F910F900FBE0F90A3
:1008C0001F9018958EEA91E09093AD018093AC0152
:1008D00082E083BF89B7816089BF0895CF93DF939A
:1008E000C0918400D09185002196D0938500C0935B
:1008F000840080918A0090918B008A3091050CF4DD
:100900005AC00A9790938B0080938A00609186006A
:100910007091870080918800909189006F5F7F4F70
:100920008F4F9F4F6093860070938700809388005D
:100930009093890020E137E240E050E088D0672BB7
:10094000682B692BA1F4DF93CF938CE690E09F9303
:100950008F9380EE91E09F938F939BD080EE91E0F8
:100960008BDF0F900F900F900F900F900F901092C1
:1009700085001092840076DE97FD1DC0E091AC01E9
:10098000F091AD01309711F0319602C0E0E0F0E057
:10099000F093AD01E093AC018083E091AC01F09164
:1009A000AD0180818D3031F08A3021F081E0EF3D62
:1009B000F80709F71082DF91CF9108952EE088E1C2
:1009C00090E00FB6F894A89581BD0FBE21BD8CEFC5
:1009D00088BB83E087BBA8952FEB87E299E0215085
:1009E00080409040E1F700C0000017BA10927C00F0
:1009F00010927D0010927E0010927F001092820073
:100A00001092810088E08093800090DEB8DC109224
:100A1000830010929B017894A89591DB85DE8091EC
:100A200083008823C9F39091C30094FFF5CF8230EF
:100A300021F468E082E690E003C062E08AE690E09C
:100A40007BDB80918300815080938300E5CFA1E21E
:100A50001A2EAA1BBB1BFD010DC0AA1FBB1FEE1F38
:100A6000FF1FA217B307E407F50720F0A21BB30B83
:100A7000E40BF50B661F771F881F991F1A9469F7FF
:100A800060957095809590959B01AC01BD01CF015B
:100A90000895AEE0B0E0EEE4F5E091C20D891E8964
:100AA00086E08C831A8309838FEF9FE79E838D8373
:100AB000AE01475E5F4F6F89788DCE01019608D0F9
:100AC000EF81F885E00FF11F10822E96E4E093C2CB
:100AD000ACE0B0E0EDE6F5E064C27C016B018A01B8
:100AE000FC0117821682838181FFB0C1CE0101967D
:100AF0004C01F7019381F60193FD859193FF81915C
:100B00006F01882309F49EC1853239F493FD8591E4
:100B100093FF81916F01853221F4B70190E0B1D14B
:100B2000E8CF512C312C20E02032A0F48B3269F038
:100B300030F4803259F0833269F420612CC08D3258
:100B400039F0803339F4216026C02260246023C04C
:100B5000286021C027FD27C030ED380F3A3078F4E7
:100B600026FF06C0FAE05F9E300D1124532E13C0FD
:100B70008AE0389E300D1124332E20620CC08E3254
:100B800021F426FD5FC1206406C08C3611F4206874
:100B900002C0883641F4F60193FD859193FF81915F
:100BA0006F018111C1CF982F9F7D9554933028F408
:100BB0000C5F1F4FFFE3F9830DC0833631F083379D
:100BC00071F0833509F057C021C0F8018081898315
:100BD0000E5F1F4F44244394512C540114C038011C
:100BE000F2E06F0E711CF801A080B18026FF03C0F7
:100BF000652D70E002C06FEF7FEFC5012C8736D105
:100C00002C0183012C852F77222E16C03801F2E0AB
:100C10006F0E711CF801A080B18026FF03C0652D06
:100C200070E002C06FEF7FEFC5012C8714D12C015B
:100C30002C852068222E830123FC19C0832D90E08F
:100C400048165906A0F4B70180E290E01AD13A9410
:100C5000F5CFF50127FC859127FE81915F01B70152
:100C600090E00FD131103A94F1E04F1A510841143D
:100C7000510479F7DEC0843611F0893631F5F80178
:100C800027FF07C060817181828193810C5F1F4FB4
:100C900008C060817181882777FD8095982F0E5F4D
:100CA0001F4F2F76B22E97FF09C0909580957095B3
:100CB00061957F4F8F4F9F4F2068B22E2AE030E022
:100CC000A40111D1A82EA81843C0853729F42F7E7E
:100CD000B22E2AE030E025C0F22FF97FBF2E8F36EA
:100CE000C1F018F4883579F0ADC0803719F0883735
:100CF00021F0A8C02F2F2061B22EB4FE0DC08B2D85
:100D00008460B82E09C024FF0AC09F2F9660B92EB8
:100D100006C028E030E005C020E130E002C020E15C
:100D200032E0F801B7FE07C0608171818281938152
:100D30000C5F1F4F06C06081718180E090E00E5F04
:100D40001F4FA401D0D0A82EA818FB2DFF77BF2ECF
:100D5000B6FE0BC02B2D2E7FA51450F4B4FE0AC096
:100D6000B2FC08C02B2D2E7E05C07A2C2B2D03C083
:100D70007A2C01C0752C24FF0DC0FE01EA0DF11D77
:100D80008081803311F4297E09C022FF06C073944C
:100D9000739404C0822F867809F0739423FD12C0E7
:100DA00020FF06C05A2C731418F4530C5718732CD8
:100DB000731460F4B70180E290E02C8762D07394E2
:100DC0002C85F6CF731410F4371801C0312C24FF92
:100DD00011C0B70180E390E02C8753D02C8522FF0F
:100DE00016C021FF03C088E590E002C088E790E0CC
:100DF000B7010CC0822F867851F021FD02C080E23D
:100E000001C08BE227FD8DE2B70190E03AD0A51436
:100E100030F4B70180E390E034D05A94F8CFAA942C
:100E2000F401EA0DF11D8081B70190E02AD0A110F4
:100E3000F6CF332009F45DCEB70180E290E021D0F7
:100E40003A94F7CFF7018681978102C08FEF9FEF29
:100E50002C96E2E1C2C0FC01059061507040011087
:100E6000D8F7809590958E0F9F1F0895FC016150D3
:100E7000704001900110D8F7809590958E0F9F1FBC
:100E800008950F931F93CF93DF93182F092FEB0132
:100E90008B8181FD03C08FEF9FEF20C082FF10C0C8
:100EA0004E815F812C813D81421753077CF4E8819C
:100EB000F9819F012F5F3F4F39832883108306C03C
:100EC000E885F985812F0995892B29F72E813F81A6
:100ED0002F5F3F4F3F832E83812F902FDF91CF9144
:100EE0001F910F910895FA01AA27283051F120315E
:100EF00081F1E8946F936E7F6E5F7F4F8F4F9F4FAE
:100F0000AF4FB1E03ED0B4E03CD0670F781F891FEF
:100F10009A1FA11D680F791F8A1F911DA11D6A0FBD
:100F2000711D811D911DA11D20D009F468943F9170
:100F30002AE0269F11243019305D3193DEF6CF016F
:100F40000895462F4770405D4193B3E00FD0C9F735
:100F5000F6CF462F4F70405D4A3318F0495D31FDA2
:100F60004052419302D0A9F7EACFB4E0A6959795F5
:100F7000879577956795BA95C9F7009761057105CB
:100F800008959B01AC010A2E069457954795379515
:100F90002795BA95C9F7620F731F841F951FA01D6F
:100FA00008952F923F924F925F926F927F928F920D
:100FB0009F92AF92BF92CF92DF92EF92FF920F93E8
:100FC0001F93CF93DF93CDB7DEB7CA1BDB0B0FB6F2
:100FD000F894DEBF0FBECDBF09942A8839884888AF
:100FE0005F846E847D848C849B84AA84B984C88445
:100FF000DF80EE80FD800C811B81AA81B981CE0F3C
:10100000D11D0FB6F894DEBF0FBECDBFED01089520
:04101000F894FFCF82
:10101400FF5AA120000000000200030048656C6C28
:0C1024006F20776F726C642025640A0056
:00000001FF
